{
  "_format": "hh-sol-artifact-1",
  "contractName": "KlayFarm",
  "sourceName": "contracts/KlayFarm.sol",
  "abi": [
    {
      "inputs": [],
      "stateMutability": "nonpayable",
      "type": "constructor"
    },
    {
      "anonymous": false,
      "inputs": [
        {
          "indexed": true,
          "internalType": "address",
          "name": "owner",
          "type": "address"
        },
        {
          "indexed": true,
          "internalType": "address",
          "name": "approved",
          "type": "address"
        },
        {
          "indexed": true,
          "internalType": "uint256",
          "name": "tokenId",
          "type": "uint256"
        }
      ],
      "name": "Approval",
      "type": "event"
    },
    {
      "anonymous": false,
      "inputs": [
        {
          "indexed": true,
          "internalType": "address",
          "name": "owner",
          "type": "address"
        },
        {
          "indexed": true,
          "internalType": "address",
          "name": "operator",
          "type": "address"
        },
        {
          "indexed": false,
          "internalType": "bool",
          "name": "approved",
          "type": "bool"
        }
      ],
      "name": "ApprovalForAll",
      "type": "event"
    },
    {
      "anonymous": false,
      "inputs": [
        {
          "indexed": true,
          "internalType": "uint256",
          "name": "tokenId",
          "type": "uint256"
        },
        {
          "indexed": true,
          "internalType": "uint256",
          "name": "index",
          "type": "uint256"
        },
        {
          "indexed": false,
          "internalType": "string",
          "name": "name",
          "type": "string"
        }
      ],
      "name": "Harvested",
      "type": "event"
    },
    {
      "anonymous": false,
      "inputs": [
        {
          "indexed": true,
          "internalType": "uint256",
          "name": "tokenId",
          "type": "uint256"
        },
        {
          "indexed": true,
          "internalType": "uint256",
          "name": "index",
          "type": "uint256"
        },
        {
          "indexed": false,
          "internalType": "string",
          "name": "name",
          "type": "string"
        }
      ],
      "name": "Planted",
      "type": "event"
    },
    {
      "anonymous": false,
      "inputs": [
        {
          "indexed": true,
          "internalType": "address",
          "name": "from",
          "type": "address"
        },
        {
          "indexed": true,
          "internalType": "address",
          "name": "to",
          "type": "address"
        },
        {
          "indexed": true,
          "internalType": "uint256",
          "name": "tokenId",
          "type": "uint256"
        }
      ],
      "name": "Transfer",
      "type": "event"
    },
    {
      "inputs": [],
      "name": "HARVEST_INTERVAL",
      "outputs": [
        {
          "internalType": "uint256",
          "name": "",
          "type": "uint256"
        }
      ],
      "stateMutability": "view",
      "type": "function"
    },
    {
      "inputs": [],
      "name": "MAX_FARM",
      "outputs": [
        {
          "internalType": "uint256",
          "name": "",
          "type": "uint256"
        }
      ],
      "stateMutability": "view",
      "type": "function"
    },
    {
      "inputs": [],
      "name": "PLANT_NAME",
      "outputs": [
        {
          "internalType": "string",
          "name": "",
          "type": "string"
        }
      ],
      "stateMutability": "view",
      "type": "function"
    },
    {
      "inputs": [
        {
          "internalType": "address",
          "name": "to",
          "type": "address"
        },
        {
          "internalType": "uint256",
          "name": "tokenId",
          "type": "uint256"
        }
      ],
      "name": "approve",
      "outputs": [],
      "stateMutability": "nonpayable",
      "type": "function"
    },
    {
      "inputs": [
        {
          "internalType": "address",
          "name": "owner",
          "type": "address"
        }
      ],
      "name": "balanceOf",
      "outputs": [
        {
          "internalType": "uint256",
          "name": "",
          "type": "uint256"
        }
      ],
      "stateMutability": "view",
      "type": "function"
    },
    {
      "inputs": [
        {
          "internalType": "uint256",
          "name": "tokenId",
          "type": "uint256"
        }
      ],
      "name": "getAllItems",
      "outputs": [
        {
          "components": [
            {
              "internalType": "string",
              "name": "name",
              "type": "string"
            },
            {
              "internalType": "uint256",
              "name": "plantedAt",
              "type": "uint256"
            }
          ],
          "internalType": "struct KlayFarm.Item[]",
          "name": "",
          "type": "tuple[]"
        }
      ],
      "stateMutability": "view",
      "type": "function"
    },
    {
      "inputs": [
        {
          "internalType": "uint256",
          "name": "tokenId",
          "type": "uint256"
        }
      ],
      "name": "getApproved",
      "outputs": [
        {
          "internalType": "address",
          "name": "",
          "type": "address"
        }
      ],
      "stateMutability": "view",
      "type": "function"
    },
    {
      "inputs": [
        {
          "internalType": "uint256",
          "name": "_tokenId",
          "type": "uint256"
        }
      ],
      "name": "getMetaData",
      "outputs": [
        {
          "internalType": "string",
          "name": "",
          "type": "string"
        }
      ],
      "stateMutability": "view",
      "type": "function"
    },
    {
      "inputs": [
        {
          "internalType": "address",
          "name": "_address",
          "type": "address"
        }
      ],
      "name": "getTokenIdByAddress",
      "outputs": [
        {
          "internalType": "uint256",
          "name": "",
          "type": "uint256"
        }
      ],
      "stateMutability": "view",
      "type": "function"
    },
    {
      "inputs": [
        {
          "internalType": "uint256",
          "name": "index",
          "type": "uint256"
        }
      ],
      "name": "harvest",
      "outputs": [],
      "stateMutability": "nonpayable",
      "type": "function"
    },
    {
      "inputs": [
        {
          "internalType": "address",
          "name": "owner",
          "type": "address"
        },
        {
          "internalType": "address",
          "name": "operator",
          "type": "address"
        }
      ],
      "name": "isApprovedForAll",
      "outputs": [
        {
          "internalType": "bool",
          "name": "",
          "type": "bool"
        }
      ],
      "stateMutability": "view",
      "type": "function"
    },
    {
      "inputs": [
        {
          "internalType": "uint256",
          "name": "",
          "type": "uint256"
        },
        {
          "internalType": "uint256",
          "name": "",
          "type": "uint256"
        }
      ],
      "name": "items",
      "outputs": [
        {
          "internalType": "string",
          "name": "name",
          "type": "string"
        },
        {
          "internalType": "uint256",
          "name": "plantedAt",
          "type": "uint256"
        }
      ],
      "stateMutability": "view",
      "type": "function"
    },
    {
      "inputs": [],
      "name": "mint",
      "outputs": [],
      "stateMutability": "nonpayable",
      "type": "function"
    },
    {
      "inputs": [],
      "name": "name",
      "outputs": [
        {
          "internalType": "string",
          "name": "",
          "type": "string"
        }
      ],
      "stateMutability": "view",
      "type": "function"
    },
    {
      "inputs": [
        {
          "internalType": "uint256",
          "name": "tokenId",
          "type": "uint256"
        }
      ],
      "name": "ownerOf",
      "outputs": [
        {
          "internalType": "address",
          "name": "",
          "type": "address"
        }
      ],
      "stateMutability": "view",
      "type": "function"
    },
    {
      "inputs": [
        {
          "internalType": "uint256",
          "name": "index",
          "type": "uint256"
        }
      ],
      "name": "plant",
      "outputs": [],
      "stateMutability": "nonpayable",
      "type": "function"
    },
    {
      "inputs": [
        {
          "internalType": "address",
          "name": "from",
          "type": "address"
        },
        {
          "internalType": "address",
          "name": "to",
          "type": "address"
        },
        {
          "internalType": "uint256",
          "name": "tokenId",
          "type": "uint256"
        }
      ],
      "name": "safeTransferFrom",
      "outputs": [],
      "stateMutability": "nonpayable",
      "type": "function"
    },
    {
      "inputs": [
        {
          "internalType": "address",
          "name": "from",
          "type": "address"
        },
        {
          "internalType": "address",
          "name": "to",
          "type": "address"
        },
        {
          "internalType": "uint256",
          "name": "tokenId",
          "type": "uint256"
        },
        {
          "internalType": "bytes",
          "name": "data",
          "type": "bytes"
        }
      ],
      "name": "safeTransferFrom",
      "outputs": [],
      "stateMutability": "nonpayable",
      "type": "function"
    },
    {
      "inputs": [
        {
          "internalType": "address",
          "name": "operator",
          "type": "address"
        },
        {
          "internalType": "bool",
          "name": "approved",
          "type": "bool"
        }
      ],
      "name": "setApprovalForAll",
      "outputs": [],
      "stateMutability": "nonpayable",
      "type": "function"
    },
    {
      "inputs": [
        {
          "internalType": "bytes4",
          "name": "interfaceId",
          "type": "bytes4"
        }
      ],
      "name": "supportsInterface",
      "outputs": [
        {
          "internalType": "bool",
          "name": "",
          "type": "bool"
        }
      ],
      "stateMutability": "view",
      "type": "function"
    },
    {
      "inputs": [],
      "name": "symbol",
      "outputs": [
        {
          "internalType": "string",
          "name": "",
          "type": "string"
        }
      ],
      "stateMutability": "view",
      "type": "function"
    },
    {
      "inputs": [
        {
          "internalType": "uint256",
          "name": "tokenId",
          "type": "uint256"
        }
      ],
      "name": "tokenURI",
      "outputs": [
        {
          "internalType": "string",
          "name": "",
          "type": "string"
        }
      ],
      "stateMutability": "view",
      "type": "function"
    },
    {
      "inputs": [
        {
          "internalType": "address",
          "name": "from",
          "type": "address"
        },
        {
          "internalType": "address",
          "name": "to",
          "type": "address"
        },
        {
          "internalType": "uint256",
          "name": "tokenId",
          "type": "uint256"
        }
      ],
      "name": "transferFrom",
      "outputs": [],
      "stateMutability": "nonpayable",
      "type": "function"
    }
  ],
  "bytecode": "0x60806040523480156200001157600080fd5b506040518060400160405280600881526020017f4b6c61794661726d0000000000000000000000000000000000000000000000008152506040518060400160405280600281526020017f4b4600000000000000000000000000000000000000000000000000000000000081525081600090816200008f919062000324565b508060019081620000a1919062000324565b5050506200040b565b600081519050919050565b7f4e487b7100000000000000000000000000000000000000000000000000000000600052604160045260246000fd5b7f4e487b7100000000000000000000000000000000000000000000000000000000600052602260045260246000fd5b600060028204905060018216806200012c57607f821691505b602082108103620001425762000141620000e4565b5b50919050565b60008190508160005260206000209050919050565b60006020601f8301049050919050565b600082821b905092915050565b600060088302620001ac7fffffffffffffffffffffffffffffffffffffffffffffffffffffffffffffffff826200016d565b620001b886836200016d565b95508019841693508086168417925050509392505050565b6000819050919050565b6000819050919050565b600062000205620001ff620001f984620001d0565b620001da565b620001d0565b9050919050565b6000819050919050565b6200022183620001e4565b6200023962000230826200020c565b8484546200017a565b825550505050565b600090565b6200025062000241565b6200025d81848462000216565b505050565b5b8181101562000285576200027960008262000246565b60018101905062000263565b5050565b601f821115620002d4576200029e8162000148565b620002a9846200015d565b81016020851015620002b9578190505b620002d1620002c8856200015d565b83018262000262565b50505b505050565b600082821c905092915050565b6000620002f960001984600802620002d9565b1980831691505092915050565b6000620003148383620002e6565b9150826002028217905092915050565b6200032f82620000aa565b67ffffffffffffffff8111156200034b576200034a620000b5565b5b62000357825462000113565b6200036482828562000289565b600060209050601f8311600181146200039c576000841562000387578287015190505b62000393858262000306565b86555062000403565b601f198416620003ac8662000148565b60005b82811015620003d657848901518255600182019150602085019450602081019050620003af565b86831015620003f65784890151620003f2601f891682620002e6565b8355505b6001600288020188555050505b505050505050565b613aaa806200041b6000396000f3fe608060405234801561001057600080fd5b506004361061014d5760003560e01c806370a08231116100c3578063c383e22b1161007c578063c383e22b146103b1578063c87b56dd146103cd578063ddc63262146103fd578063e5cfa29d14610419578063e985e9c514610437578063f0fe5746146104675761014d565b806370a08231146102dd578063812c02ec1461030d5780638cbab7e41461032b57806395d89b411461035b578063a22cb46514610379578063b88d4fde146103955761014d565b80631249c58b116101155780631249c58b1461020a57806323b872dd1461021457806331e838dd1461023057806342842e0e1461026157806361eba5521461027d5780636352211e146102ad5761014d565b806301ffc9a71461015257806306fdde0314610182578063081812fc146101a0578063095ea7b3146101d05780630d9a34a2146101ec575b600080fd5b61016c600480360381019061016791906122b7565b610497565b60405161017991906122ff565b60405180910390f35b61018a610579565b60405161019791906123aa565b60405180910390f35b6101ba60048036038101906101b59190612402565b61060b565b6040516101c79190612470565b60405180910390f35b6101ea60048036038101906101e591906124b7565b610651565b005b6101f4610768565b6040516102019190612506565b60405180910390f35b61021261076d565b005b61022e60048036038101906102299190612521565b610787565b005b61024a60048036038101906102459190612574565b6107e7565b6040516102589291906125b4565b60405180910390f35b61027b60048036038101906102769190612521565b6108a0565b005b61029760048036038101906102929190612402565b6108c0565b6040516102a491906123aa565b60405180910390f35b6102c760048036038101906102c29190612402565b610a10565b6040516102d49190612470565b60405180910390f35b6102f760048036038101906102f291906125e4565b610a96565b6040516103049190612506565b60405180910390f35b610315610b4d565b60405161032291906123aa565b60405180910390f35b610345600480360381019061034091906125e4565b610b86565b6040516103529190612506565b60405180910390f35b610363610bb9565b60405161037091906123aa565b60405180910390f35b610393600480360381019061038e919061263d565b610c4b565b005b6103af60048036038101906103aa91906127b2565b610c61565b005b6103cb60048036038101906103c69190612402565b610cc3565b005b6103e760048036038101906103e29190612402565b610f02565b6040516103f491906123aa565b60405180910390f35b61041760048036038101906104129190612402565b610f3b565b005b61042161112d565b60405161042e9190612506565b60405180910390f35b610451600480360381019061044c9190612835565b611132565b60405161045e91906122ff565b60405180910390f35b610481600480360381019061047c9190612402565b6111c6565b60405161048e91906129cd565b60405180910390f35b60007f80ac58cd000000000000000000000000000000000000000000000000000000007bffffffffffffffffffffffffffffffffffffffffffffffffffffffff1916827bffffffffffffffffffffffffffffffffffffffffffffffffffffffff1916148061056257507f5b5e139f000000000000000000000000000000000000000000000000000000007bffffffffffffffffffffffffffffffffffffffffffffffffffffffff1916827bffffffffffffffffffffffffffffffffffffffffffffffffffffffff1916145b80610572575061057182611333565b5b9050919050565b60606000805461058890612a1e565b80601f01602080910402602001604051908101604052809291908181526020018280546105b490612a1e565b80156106015780601f106105d657610100808354040283529160200191610601565b820191906000526020600020905b8154815290600101906020018083116105e457829003601f168201915b5050505050905090565b60006106168261139d565b6004600083815260200190815260200160002060009054906101000a900473ffffffffffffffffffffffffffffffffffffffff169050919050565b600061065c82610a10565b90508073ffffffffffffffffffffffffffffffffffffffff168373ffffffffffffffffffffffffffffffffffffffff16036106cc576040517f08c379a00000000000000000000000000000000000000000000000000000000081526004016106c390612ac1565b60405180910390fd5b8073ffffffffffffffffffffffffffffffffffffffff166106eb6113e8565b73ffffffffffffffffffffffffffffffffffffffff16148061071a5750610719816107146113e8565b611132565b5b610759576040517f08c379a000000000000000000000000000000000000000000000000000000000815260040161075090612b53565b60405180910390fd5b61076383836113f0565b505050565b603c81565b600061077833610b86565b905061078433826114a9565b50565b6107986107926113e8565b826116c6565b6107d7576040517f08c379a00000000000000000000000000000000000000000000000000000000081526004016107ce90612be5565b60405180910390fd5b6107e283838361175b565b505050565b60066020528160005260406000206020528060005260406000206000915091505080600001805461081790612a1e565b80601f016020809104026020016040519081016040528092919081815260200182805461084390612a1e565b80156108905780601f1061086557610100808354040283529160200191610890565b820191906000526020600020905b81548152906001019060200180831161087357829003601f168201915b5050505050908060010154905082565b6108bb83838360405180602001604052806000815250610c61565b505050565b60606108cb82611a54565b61090a576040517f08c379a000000000000000000000000000000000000000000000000000000000815260040161090190612c51565b60405180910390fd5b60006040518060400160405280600881526020017f4b6c61794661726d000000000000000000000000000000000000000000000000815250905060006040518060400160405280601081526020017f54686973206973204b6c61794661726d00000000000000000000000000000000815250905060006040518060400160405280602081526020017f68747470733a2f2f706c616365686f6c642e6a702f353030783530302e706e6781525090506000604051806060016040528060228152602001613a53602291399050838383836109e28a611a95565b6040516020016109f6959493929190612e75565b604051602081830303815290604052945050505050919050565b600080610a1c83611b63565b9050600073ffffffffffffffffffffffffffffffffffffffff168173ffffffffffffffffffffffffffffffffffffffff1603610a8d576040517f08c379a0000000000000000000000000000000000000000000000000000000008152600401610a8490612f4e565b60405180910390fd5b80915050919050565b60008073ffffffffffffffffffffffffffffffffffffffff168273ffffffffffffffffffffffffffffffffffffffff1603610b06576040517f08c379a0000000000000000000000000000000000000000000000000000000008152600401610afd90612fe0565b60405180910390fd5b600360008373ffffffffffffffffffffffffffffffffffffffff1673ffffffffffffffffffffffffffffffffffffffff168152602001908152602001600020549050919050565b6040518060400160405280600681526020017f546f6d61746f000000000000000000000000000000000000000000000000000081525081565b600033604051602001610b999190613048565b6040516020818303038152906040528051906020012060001c9050919050565b606060018054610bc890612a1e565b80601f0160208091040260200160405190810160405280929190818152602001828054610bf490612a1e565b8015610c415780601f10610c1657610100808354040283529160200191610c41565b820191906000526020600020905b815481529060010190602001808311610c2457829003601f168201915b5050505050905090565b610c5d610c566113e8565b8383611ba0565b5050565b610c72610c6c6113e8565b836116c6565b610cb1576040517f08c379a0000000000000000000000000000000000000000000000000000000008152600401610ca890612be5565b60405180910390fd5b610cbd84848484611d0c565b50505050565b60098110610d06576040517f08c379a0000000000000000000000000000000000000000000000000000000008152600401610cfd906130d5565b60405180910390fd5b6000610d1133610b86565b90506000600660008381526020019081526020016000206000848152602001908152602001600020604051806040016040529081600082018054610d5490612a1e565b80601f0160208091040260200160405190810160405280929190818152602001828054610d8090612a1e565b8015610dcd5780601f10610da257610100808354040283529160200191610dcd565b820191906000526020600020905b815481529060010190602001808311610db057829003601f168201915b5050505050815260200160018201548152505090506000816020015114610e29576040517f08c379a0000000000000000000000000000000000000000000000000000000008152600401610e2090613141565b60405180910390fd5b600060405180604001604052806040518060400160405280600681526020017f546f6d61746f00000000000000000000000000000000000000000000000000008152508152602001428152509050806006600085815260200190815260200160002060008681526020019081526020016000206000820151816000019081610eb1919061330d565b506020820151816001015590505083837f551868c64e3647ae2e14989c3d7d4dccc3a834111c731ced85316e74ea85482e8360000151604051610ef491906123aa565b60405180910390a350505050565b6060610f15610f10836108c0565b611d68565b604051602001610f25919061342b565b6040516020818303038152906040529050919050565b60098110610f7e576040517f08c379a0000000000000000000000000000000000000000000000000000000008152600401610f75906130d5565b60405180910390fd5b6000610f8933610b86565b90506000600660008381526020019081526020016000206000848152602001908152602001600020604051806040016040529081600082018054610fcc90612a1e565b80601f0160208091040260200160405190810160405280929190818152602001828054610ff890612a1e565b80156110455780601f1061101a57610100808354040283529160200191611045565b820191906000526020600020905b81548152906001019060200180831161102857829003601f168201915b505050505081526020016001820154815250509050603c816020015161106b919061347c565b42116110ac576040517f08c379a00000000000000000000000000000000000000000000000000000000081526004016110a3906134fc565b60405180910390fd5b600660008381526020019081526020016000206000848152602001908152602001600020600080820160006110e191906121d4565b6001820160009055505082827fb03ab24c88103cff4b218fc9ae256819674a9813e77bdff75e45628d6091ec2d836000015160405161112091906123aa565b60405180910390a3505050565b600981565b6000600560008473ffffffffffffffffffffffffffffffffffffffff1673ffffffffffffffffffffffffffffffffffffffff16815260200190815260200160002060008373ffffffffffffffffffffffffffffffffffffffff1673ffffffffffffffffffffffffffffffffffffffff16815260200190815260200160002060009054906101000a900460ff16905092915050565b60606000600967ffffffffffffffff8111156111e5576111e4612687565b5b60405190808252806020026020018201604052801561121e57816020015b61120b612214565b8152602001906001900390816112035790505b50905060005b60098110156113295760066000858152602001908152602001600020600082815260200190815260200160002060405180604001604052908160008201805461126c90612a1e565b80601f016020809104026020016040519081016040528092919081815260200182805461129890612a1e565b80156112e55780601f106112ba576101008083540402835291602001916112e5565b820191906000526020600020905b8154815290600101906020018083116112c857829003601f168201915b5050505050815260200160018201548152505082828151811061130b5761130a61351c565b5b602002602001018190525080806113219061354b565b915050611224565b5080915050919050565b60007f01ffc9a7000000000000000000000000000000000000000000000000000000007bffffffffffffffffffffffffffffffffffffffffffffffffffffffff1916827bffffffffffffffffffffffffffffffffffffffffffffffffffffffff1916149050919050565b6113a681611a54565b6113e5576040517f08c379a00000000000000000000000000000000000000000000000000000000081526004016113dc90612f4e565b60405180910390fd5b50565b600033905090565b816004600083815260200190815260200160002060006101000a81548173ffffffffffffffffffffffffffffffffffffffff021916908373ffffffffffffffffffffffffffffffffffffffff160217905550808273ffffffffffffffffffffffffffffffffffffffff1661146383610a10565b73ffffffffffffffffffffffffffffffffffffffff167f8c5be1e5ebec7d5bd14f71427d1e84f3dd0314c0f7b2291e5b200ac8c7c3b92560405160405180910390a45050565b600073ffffffffffffffffffffffffffffffffffffffff168273ffffffffffffffffffffffffffffffffffffffff1603611518576040517f08c379a000000000000000000000000000000000000000000000000000000000815260040161150f906135df565b60405180910390fd5b61152181611a54565b15611561576040517f08c379a00000000000000000000000000000000000000000000000000000000081526004016115589061364b565b60405180910390fd5b61156f600083836001611ecb565b61157881611a54565b156115b8576040517f08c379a00000000000000000000000000000000000000000000000000000000081526004016115af9061364b565b60405180910390fd5b6001600360008473ffffffffffffffffffffffffffffffffffffffff1673ffffffffffffffffffffffffffffffffffffffff16815260200190815260200160002060008282540192505081905550816002600083815260200190815260200160002060006101000a81548173ffffffffffffffffffffffffffffffffffffffff021916908373ffffffffffffffffffffffffffffffffffffffff160217905550808273ffffffffffffffffffffffffffffffffffffffff16600073ffffffffffffffffffffffffffffffffffffffff167fddf252ad1be2c89b69c2b068fc378daa952ba7f163c4a11628f55a4df523b3ef60405160405180910390a46116c2600083836001611ed1565b5050565b6000806116d283610a10565b90508073ffffffffffffffffffffffffffffffffffffffff168473ffffffffffffffffffffffffffffffffffffffff16148061171457506117138185611132565b5b8061175257508373ffffffffffffffffffffffffffffffffffffffff1661173a8461060b565b73ffffffffffffffffffffffffffffffffffffffff16145b91505092915050565b8273ffffffffffffffffffffffffffffffffffffffff1661177b82610a10565b73ffffffffffffffffffffffffffffffffffffffff16146117d1576040517f08c379a00000000000000000000000000000000000000000000000000000000081526004016117c8906136dd565b60405180910390fd5b600073ffffffffffffffffffffffffffffffffffffffff168273ffffffffffffffffffffffffffffffffffffffff1603611840576040517f08c379a00000000000000000000000000000000000000000000000000000000081526004016118379061376f565b60405180910390fd5b61184d8383836001611ecb565b8273ffffffffffffffffffffffffffffffffffffffff1661186d82610a10565b73ffffffffffffffffffffffffffffffffffffffff16146118c3576040517f08c379a00000000000000000000000000000000000000000000000000000000081526004016118ba906136dd565b60405180910390fd5b6004600082815260200190815260200160002060006101000a81549073ffffffffffffffffffffffffffffffffffffffff02191690556001600360008573ffffffffffffffffffffffffffffffffffffffff1673ffffffffffffffffffffffffffffffffffffffff168152602001908152602001600020600082825403925050819055506001600360008473ffffffffffffffffffffffffffffffffffffffff1673ffffffffffffffffffffffffffffffffffffffff16815260200190815260200160002060008282540192505081905550816002600083815260200190815260200160002060006101000a81548173ffffffffffffffffffffffffffffffffffffffff021916908373ffffffffffffffffffffffffffffffffffffffff160217905550808273ffffffffffffffffffffffffffffffffffffffff168473ffffffffffffffffffffffffffffffffffffffff167fddf252ad1be2c89b69c2b068fc378daa952ba7f163c4a11628f55a4df523b3ef60405160405180910390a4611a4f8383836001611ed1565b505050565b60008073ffffffffffffffffffffffffffffffffffffffff16611a7683611b63565b73ffffffffffffffffffffffffffffffffffffffff1614159050919050565b606060006001611aa484611ed7565b01905060008167ffffffffffffffff811115611ac357611ac2612687565b5b6040519080825280601f01601f191660200182016040528015611af55781602001600182028036833780820191505090505b509050600082602001820190505b600115611b58578080600190039150507f3031323334353637383961626364656600000000000000000000000000000000600a86061a8153600a8581611b4c57611b4b61378f565b5b04945060008503611b03575b819350505050919050565b60006002600083815260200190815260200160002060009054906101000a900473ffffffffffffffffffffffffffffffffffffffff169050919050565b8173ffffffffffffffffffffffffffffffffffffffff168373ffffffffffffffffffffffffffffffffffffffff1603611c0e576040517f08c379a0000000000000000000000000000000000000000000000000000000008152600401611c059061380a565b60405180910390fd5b80600560008573ffffffffffffffffffffffffffffffffffffffff1673ffffffffffffffffffffffffffffffffffffffff16815260200190815260200160002060008473ffffffffffffffffffffffffffffffffffffffff1673ffffffffffffffffffffffffffffffffffffffff16815260200190815260200160002060006101000a81548160ff0219169083151502179055508173ffffffffffffffffffffffffffffffffffffffff168373ffffffffffffffffffffffffffffffffffffffff167f17307eab39ab6107e8899845ad3d59bd9653f200f220920489ca2b5937696c3183604051611cff91906122ff565b60405180910390a3505050565b611d1784848461175b565b611d238484848461202a565b611d62576040517f08c379a0000000000000000000000000000000000000000000000000000000008152600401611d599061389c565b60405180910390fd5b50505050565b60606000825103611d8a57604051806020016040528060008152509050611ec6565b6000604051806060016040528060408152602001613a136040913990506000600360028551611db9919061347c565b611dc391906138bc565b6004611dcf91906138ed565b67ffffffffffffffff811115611de857611de7612687565b5b6040519080825280601f01601f191660200182016040528015611e1a5781602001600182028036833780820191505090505b509050600182016020820185865187015b80821015611e86576003820191508151603f8160121c168501518453600184019350603f81600c1c168501518453600184019350603f8160061c168501518453600184019350603f8116850151845360018401935050611e2b565b5050600386510660018114611ea25760028114611eb557611ebd565b603d6001830353603d6002830353611ebd565b603d60018303535b50505080925050505b919050565b50505050565b50505050565b600080600090507a184f03e93ff9f4daa797ed6e38ed64bf6a1f0100000000000000008310611f35577a184f03e93ff9f4daa797ed6e38ed64bf6a1f0100000000000000008381611f2b57611f2a61378f565b5b0492506040810190505b6d04ee2d6d415b85acef81000000008310611f72576d04ee2d6d415b85acef81000000008381611f6857611f6761378f565b5b0492506020810190505b662386f26fc100008310611fa157662386f26fc100008381611f9757611f9661378f565b5b0492506010810190505b6305f5e1008310611fca576305f5e1008381611fc057611fbf61378f565b5b0492506008810190505b6127108310611fef576127108381611fe557611fe461378f565b5b0492506004810190505b6064831061201257606483816120085761200761378f565b5b0492506002810190505b600a8310612021576001810190505b80915050919050565b600061204b8473ffffffffffffffffffffffffffffffffffffffff166121b1565b156121a4578373ffffffffffffffffffffffffffffffffffffffff1663150b7a026120746113e8565b8786866040518563ffffffff1660e01b81526004016120969493929190613984565b6020604051808303816000875af19250505080156120d257506040513d601f19601f820116820180604052508101906120cf91906139e5565b60015b612154573d8060008114612102576040519150601f19603f3d011682016040523d82523d6000602084013e612107565b606091505b50600081510361214c576040517f08c379a00000000000000000000000000000000000000000000000000000000081526004016121439061389c565b60405180910390fd5b805181602001fd5b63150b7a0260e01b7bffffffffffffffffffffffffffffffffffffffffffffffffffffffff1916817bffffffffffffffffffffffffffffffffffffffffffffffffffffffff1916149150506121a9565b600190505b949350505050565b6000808273ffffffffffffffffffffffffffffffffffffffff163b119050919050565b5080546121e090612a1e565b6000825580601f106121f25750612211565b601f016020900490600052602060002090810190612210919061222e565b5b50565b604051806040016040528060608152602001600081525090565b5b8082111561224757600081600090555060010161222f565b5090565b6000604051905090565b600080fd5b600080fd5b60007fffffffff0000000000000000000000000000000000000000000000000000000082169050919050565b6122948161225f565b811461229f57600080fd5b50565b6000813590506122b18161228b565b92915050565b6000602082840312156122cd576122cc612255565b5b60006122db848285016122a2565b91505092915050565b60008115159050919050565b6122f9816122e4565b82525050565b600060208201905061231460008301846122f0565b92915050565b600081519050919050565b600082825260208201905092915050565b60005b83811015612354578082015181840152602081019050612339565b60008484015250505050565b6000601f19601f8301169050919050565b600061237c8261231a565b6123868185612325565b9350612396818560208601612336565b61239f81612360565b840191505092915050565b600060208201905081810360008301526123c48184612371565b905092915050565b6000819050919050565b6123df816123cc565b81146123ea57600080fd5b50565b6000813590506123fc816123d6565b92915050565b60006020828403121561241857612417612255565b5b6000612426848285016123ed565b91505092915050565b600073ffffffffffffffffffffffffffffffffffffffff82169050919050565b600061245a8261242f565b9050919050565b61246a8161244f565b82525050565b60006020820190506124856000830184612461565b92915050565b6124948161244f565b811461249f57600080fd5b50565b6000813590506124b18161248b565b92915050565b600080604083850312156124ce576124cd612255565b5b60006124dc858286016124a2565b92505060206124ed858286016123ed565b9150509250929050565b612500816123cc565b82525050565b600060208201905061251b60008301846124f7565b92915050565b60008060006060848603121561253a57612539612255565b5b6000612548868287016124a2565b9350506020612559868287016124a2565b925050604061256a868287016123ed565b9150509250925092565b6000806040838503121561258b5761258a612255565b5b6000612599858286016123ed565b92505060206125aa858286016123ed565b9150509250929050565b600060408201905081810360008301526125ce8185612371565b90506125dd60208301846124f7565b9392505050565b6000602082840312156125fa576125f9612255565b5b6000612608848285016124a2565b91505092915050565b61261a816122e4565b811461262557600080fd5b50565b60008135905061263781612611565b92915050565b6000806040838503121561265457612653612255565b5b6000612662858286016124a2565b925050602061267385828601612628565b9150509250929050565b600080fd5b600080fd5b7f4e487b7100000000000000000000000000000000000000000000000000000000600052604160045260246000fd5b6126bf82612360565b810181811067ffffffffffffffff821117156126de576126dd612687565b5b80604052505050565b60006126f161224b565b90506126fd82826126b6565b919050565b600067ffffffffffffffff82111561271d5761271c612687565b5b61272682612360565b9050602081019050919050565b82818337600083830152505050565b600061275561275084612702565b6126e7565b90508281526020810184848401111561277157612770612682565b5b61277c848285612733565b509392505050565b600082601f8301126127995761279861267d565b5b81356127a9848260208601612742565b91505092915050565b600080600080608085870312156127cc576127cb612255565b5b60006127da878288016124a2565b94505060206127eb878288016124a2565b93505060406127fc878288016123ed565b925050606085013567ffffffffffffffff81111561281d5761281c61225a565b5b61282987828801612784565b91505092959194509250565b6000806040838503121561284c5761284b612255565b5b600061285a858286016124a2565b925050602061286b858286016124a2565b9150509250929050565b600081519050919050565b600082825260208201905092915050565b6000819050602082019050919050565b600082825260208201905092915050565b60006128bd8261231a565b6128c781856128a1565b93506128d7818560208601612336565b6128e081612360565b840191505092915050565b6128f4816123cc565b82525050565b6000604083016000830151848203600086015261291782826128b2565b915050602083015161292c60208601826128eb565b508091505092915050565b600061294383836128fa565b905092915050565b6000602082019050919050565b600061296382612875565b61296d8185612880565b93508360208202850161297f85612891565b8060005b858110156129bb578484038952815161299c8582612937565b94506129a78361294b565b925060208a01995050600181019050612983565b50829750879550505050505092915050565b600060208201905081810360008301526129e78184612958565b905092915050565b7f4e487b7100000000000000000000000000000000000000000000000000000000600052602260045260246000fd5b60006002820490506001821680612a3657607f821691505b602082108103612a4957612a486129ef565b5b50919050565b7f4552433732313a20617070726f76616c20746f2063757272656e74206f776e6560008201527f7200000000000000000000000000000000000000000000000000000000000000602082015250565b6000612aab602183612325565b9150612ab682612a4f565b604082019050919050565b60006020820190508181036000830152612ada81612a9e565b9050919050565b7f4552433732313a20617070726f76652063616c6c6572206973206e6f7420746f60008201527f6b656e206f776e6572206f7220617070726f76656420666f7220616c6c000000602082015250565b6000612b3d603d83612325565b9150612b4882612ae1565b604082019050919050565b60006020820190508181036000830152612b6c81612b30565b9050919050565b7f4552433732313a2063616c6c6572206973206e6f7420746f6b656e206f776e6560008201527f72206f7220617070726f76656400000000000000000000000000000000000000602082015250565b6000612bcf602d83612325565b9150612bda82612b73565b604082019050919050565b60006020820190508181036000830152612bfe81612bc2565b9050919050565b7f717565727920666f72206e6f6e6578697374656e7420746f6b656e0000000000600082015250565b6000612c3b601b83612325565b9150612c4682612c05565b602082019050919050565b60006020820190508181036000830152612c6a81612c2e565b9050919050565b600081905092915050565b7f7b226e616d65223a220000000000000000000000000000000000000000000000600082015250565b6000612cb2600983612c71565b9150612cbd82612c7c565b600982019050919050565b6000612cd38261231a565b612cdd8185612c71565b9350612ced818560208601612336565b80840191505092915050565b7f222c226465736372697074696f6e223a22000000000000000000000000000000600082015250565b6000612d2f601183612c71565b9150612d3a82612cf9565b601182019050919050565b7f222c22696d616765223a22000000000000000000000000000000000000000000600082015250565b6000612d7b600b83612c71565b9150612d8682612d45565b600b82019050919050565b7f222c22616e696d6174696f6e5f75726c223a2200000000000000000000000000600082015250565b6000612dc7601383612c71565b9150612dd282612d91565b601382019050919050565b7f3f69643d00000000000000000000000000000000000000000000000000000000600082015250565b6000612e13600483612c71565b9150612e1e82612ddd565b600482019050919050565b7f227d000000000000000000000000000000000000000000000000000000000000600082015250565b6000612e5f600283612c71565b9150612e6a82612e29565b600282019050919050565b6000612e8082612ca5565b9150612e8c8288612cc8565b9150612e9782612d22565b9150612ea38287612cc8565b9150612eae82612d6e565b9150612eba8286612cc8565b9150612ec582612dba565b9150612ed18285612cc8565b9150612edc82612e06565b9150612ee88284612cc8565b9150612ef382612e52565b91508190509695505050505050565b7f4552433732313a20696e76616c696420746f6b656e2049440000000000000000600082015250565b6000612f38601883612325565b9150612f4382612f02565b602082019050919050565b60006020820190508181036000830152612f6781612f2b565b9050919050565b7f4552433732313a2061646472657373207a65726f206973206e6f74206120766160008201527f6c6964206f776e65720000000000000000000000000000000000000000000000602082015250565b6000612fca602983612325565b9150612fd582612f6e565b604082019050919050565b60006020820190508181036000830152612ff981612fbd565b9050919050565b60008160601b9050919050565b600061301882613000565b9050919050565b600061302a8261300d565b9050919050565b61304261303d8261244f565b61301f565b82525050565b60006130548284613031565b60148201915081905092915050565b7f4b6c61794661726d3a206661726d20696e646578206d757374206265206c657360008201527f73207468616e204d41585f4641524d0000000000000000000000000000000000602082015250565b60006130bf602f83612325565b91506130ca82613063565b604082019050919050565b600060208201905081810360008301526130ee816130b2565b9050919050565b7f4b6c61794661726d3a20616c726561647920706c616e74656400000000000000600082015250565b600061312b601983612325565b9150613136826130f5565b602082019050919050565b6000602082019050818103600083015261315a8161311e565b9050919050565b60008190508160005260206000209050919050565b60006020601f8301049050919050565b600082821b905092915050565b6000600883026131c37fffffffffffffffffffffffffffffffffffffffffffffffffffffffffffffffff82613186565b6131cd8683613186565b95508019841693508086168417925050509392505050565b6000819050919050565b600061320a613205613200846123cc565b6131e5565b6123cc565b9050919050565b6000819050919050565b613224836131ef565b61323861323082613211565b848454613193565b825550505050565b600090565b61324d613240565b61325881848461321b565b505050565b5b8181101561327c57613271600082613245565b60018101905061325e565b5050565b601f8211156132c15761329281613161565b61329b84613176565b810160208510156132aa578190505b6132be6132b685613176565b83018261325d565b50505b505050565b600082821c905092915050565b60006132e4600019846008026132c6565b1980831691505092915050565b60006132fd83836132d3565b9150826002028217905092915050565b6133168261231a565b67ffffffffffffffff81111561332f5761332e612687565b5b6133398254612a1e565b613344828285613280565b600060209050601f8311600181146133775760008415613365578287015190505b61336f85826132f1565b8655506133d7565b601f19841661338586613161565b60005b828110156133ad57848901518255600182019150602085019450602081019050613388565b868310156133ca57848901516133c6601f8916826132d3565b8355505b6001600288020188555050505b505050505050565b7f646174613a6170706c69636174696f6e2f6a736f6e3b6261736536342c000000600082015250565b6000613415601d83612c71565b9150613420826133df565b601d82019050919050565b600061343682613408565b91506134428284612cc8565b915081905092915050565b7f4e487b7100000000000000000000000000000000000000000000000000000000600052601160045260246000fd5b6000613487826123cc565b9150613492836123cc565b92508282019050808211156134aa576134a961344d565b5b92915050565b7f4b6c61794661726d3a206e6f7420726561647920746f20686172766573740000600082015250565b60006134e6601e83612325565b91506134f1826134b0565b602082019050919050565b60006020820190508181036000830152613515816134d9565b9050919050565b7f4e487b7100000000000000000000000000000000000000000000000000000000600052603260045260246000fd5b6000613556826123cc565b91507fffffffffffffffffffffffffffffffffffffffffffffffffffffffffffffffff82036135885761358761344d565b5b600182019050919050565b7f4552433732313a206d696e7420746f20746865207a65726f2061646472657373600082015250565b60006135c9602083612325565b91506135d482613593565b602082019050919050565b600060208201905081810360008301526135f8816135bc565b9050919050565b7f4552433732313a20746f6b656e20616c7265616479206d696e74656400000000600082015250565b6000613635601c83612325565b9150613640826135ff565b602082019050919050565b6000602082019050818103600083015261366481613628565b9050919050565b7f4552433732313a207472616e736665722066726f6d20696e636f72726563742060008201527f6f776e6572000000000000000000000000000000000000000000000000000000602082015250565b60006136c7602583612325565b91506136d28261366b565b604082019050919050565b600060208201905081810360008301526136f6816136ba565b9050919050565b7f4552433732313a207472616e7366657220746f20746865207a65726f2061646460008201527f7265737300000000000000000000000000000000000000000000000000000000602082015250565b6000613759602483612325565b9150613764826136fd565b604082019050919050565b600060208201905081810360008301526137888161374c565b9050919050565b7f4e487b7100000000000000000000000000000000000000000000000000000000600052601260045260246000fd5b7f4552433732313a20617070726f766520746f2063616c6c657200000000000000600082015250565b60006137f4601983612325565b91506137ff826137be565b602082019050919050565b60006020820190508181036000830152613823816137e7565b9050919050565b7f4552433732313a207472616e7366657220746f206e6f6e20455243373231526560008201527f63656976657220696d706c656d656e7465720000000000000000000000000000602082015250565b6000613886603283612325565b91506138918261382a565b604082019050919050565b600060208201905081810360008301526138b581613879565b9050919050565b60006138c7826123cc565b91506138d2836123cc565b9250826138e2576138e161378f565b5b828204905092915050565b60006138f8826123cc565b9150613903836123cc565b9250828202613911816123cc565b915082820484148315176139285761392761344d565b5b5092915050565b600081519050919050565b600082825260208201905092915050565b60006139568261392f565b613960818561393a565b9350613970818560208601612336565b61397981612360565b840191505092915050565b60006080820190506139996000830187612461565b6139a66020830186612461565b6139b360408301856124f7565b81810360608301526139c5818461394b565b905095945050505050565b6000815190506139df8161228b565b92915050565b6000602082840312156139fb576139fa612255565b5b6000613a09848285016139d0565b9150509291505056fe4142434445464748494a4b4c4d4e4f505152535455565758595a6162636465666768696a6b6c6d6e6f707172737475767778797a303132333435363738392b2f68747470733a2f2f323032332d6b6c61796d616b6572732e76657263656c2e617070a26469706673582212201e250208d5e2ee01a786b9f6d1a6e3cb9292b2c79f0c0d0e60c80479ce51ad2264736f6c63430008120033",
  "linkReferences": {},
  "deployedLinkReferences": {}
}